:100000000A128A11FC2FFF1B0D2883137F188317F8
:100010000008840A0319FF0A080000308A00040857
:10002000840A820700343234433430343034353477
:10003000343443343634303445344234303400348C
:100040003234443430343034353438344634313456
:100050004134303432343434003441347434743400
:1000600065346E34643461346E3463346534203402
:100070004D34613472346B34653464340034533439
:10008000633461346E34203479346F3475347234AF
:1000900020346334613472346434003449346E344F
:1000A000763461346C3469346434203443346134DC
:0600B000723464340034D8
:1009DA00831203138C1EF22CF32CED2C1A08080038
:1009EA00813083160313990098161812181583126A
:1009FA00031398171816080001300A128A11F525F0
:100A0A000A128A110D30F400FB30F300F30B0B2DA0
:100A1A00F40B0B2D102D080002300A128A11F5254D
:100A2A000A128A1128300A128A11F5250A128A1125
:100A3A000C300A128A11F5250A128A1106300A1296
:100A4A008A11F5250A128A1101300A128A11F5252E
:100A5A000A128A110800452D7408FF0073088400E1
:100A6A000A128A1103200A128A110A128A11A0266E
:100A7A000A128A110130F3070318F40A0030F40746
:100A8A00740883120313FF00730884000A128A1180
:100A9A0003200A128A11003A031D542D552D312DB7
:100AAA0008005B2D0130F0070130F107710884005E
:100ABA000A128A110D200A128A11F20070088400A3
:100ACA00831300087206031D6B2D6C2D732D70089D
:100ADA0084000008031D722D732D572D71088400A0
:100AEA000A128A110D200A128A11F2007008840073
:100AFA000008F30072087302F000F101031CF1030D
:100B0A0008007508F0000E30F1000A128A11562505
:100B1A000A128A1170087104031D942D952DB72DA0
:100B2A000A128A1101250A128A111B30F300803039
:100B3A00F4000A128A1130250A128A118312031349
:100B4A0088140630F8001330F700AD30F600F60BC3
:100B5A00AC2DF70BAC2DF80BAC2DB32D8312031370
:100B6A008810F42D7508F0000130F1000A128A117C
:100B7A0056250A128A1170087104031DC52DC62D47
:100B8A00D52D0A128A1101250A128A111B30F30087
:100B9A008030F4000A128A1130250A128A11A32D14
:100BAA000A128A1101250A128A113C30F300803098
:100BBA00F4000A128A1130250A128A1183120313C9
:100BCA0088141530F8004B30F700BE30F600F60BEB
:100BDA00EC2DF70BEC2DF80BEC2D0000B32D0800D3
:100BEA00F2008312031308117208F0000430031094
:100BFA00F00CFF3E031DFC2D7018042E082E8312E4
:100C0A00031308160B2E8312031308127208F0003E
:100C1A0005300310F00CFF3E031D0E2E7018162E21
:100C2A001A2E8312031388161D2E83120313881299
:100C3A007208F00006300310F00CFF3E031D202E50
:100C4A007018282E2C2E8312031308172F2E8312A6
:100C5A00031308137208F00007300310F00CFF3E6C
:100C6A00031D322E70183A2E3E2E83120313881754
:100C7A00412E8312031388138815432E442E000035
:100C8A00831203138811C730F0004B2EF00B4A2E43
:100C9A004E2E4F2E7218522E562E831203130816FA
:100CAA00592E8312031308127208F0000130031040
:100CBA00F00CFF3E031D5C2E7018642E682E831202
:100CCA00031388166B2E8312031388127208F0001E
:100CDA0002300310F00CFF3E031D6E2E7018762EA4
:100CEA007A2E8312031308177D2E83120313081317
:100CFA007208F00003300310F00CFF3E031D802E33
:100D0A007018882E8C2E8312031388178F2E831245
:100D1A00031388138815912E922E00008312031351
:100D2A0088110D30F100FB30F000F00B9A2EF10B18
:100D3A009A2E9F2E0800F2008312031308157208D8
:100D4A00F00004300310F00CFF3E031DA72E7018AC
:100D5A00AF2EB32E831203130816B62E8312031373
:100D6A0008127208F00005300310F00CFF3E031D54
:100D7A00B92E7018C12EC52E831203138816C82ED9
:100D8A008312031388127208F00006300310F00C65
:100D9A00FF3E031DCB2E7018D32ED72E83120313BA
:100DAA000817DA2E8312031308137208F0000730AB
:100DBA000310F00CFF3E031DDD2E7018E52EE92E00
:100DCA00831203138817EC2E8312031388138815D2
:100DDA00EE2EEF2E0000831203138811C730F000A5
:100DEA00F62EF00BF52EF92EFA2E7218FD2E012F83
:100DFA00831203130816042F8312031308127208AE
:100E0A00F00001300310F00CFF3E031D072F70188D
:100E1A000F2F132F831203138816162F831203130F
:100E2A0088127208F00002300310F00CFF3E031D16
:100E3A00192F7018212F252F831203130817282F13
:100E4A008312031308137208F00003300310F00C26
:100E5A00FF3E031D2B2F7018332F372F83120313D6
:100E6A0088173A2F83120313881388153C2F3D2FB6
:100E7A0000008312031388110D30F100FB30F000DB
:100E8A00F00B452FF10B452F4A2F08008316031349
:100E9A008801871707130A128A11F5240A128A1180
:100EAA000A128A1111250A128A110A128A110125B7
:100EBA000A128A112D30F3008030F4000A128A11C6
:100ECA0030250A128A116A2F1A08831203138C1A00
:100EDA006F2F702F692FAD01AE01AB2F0A128A1145
:100EEA00ED240A128A1183120313AF0030302F0245
:100EFA00031C802F812F872F3A302F02031C862F45
:100F0A00872F9F2F41302F02031C8C2F8D2F932F59
:100F1A005B302F02031C922F932F9F2F61302F02D9
:100F2A00031C982F992FAB2F7B302F0203189E2F6B
:100F3A009F2FAB2F2D08203E84002F08831380009B
:100F4A000130AD070318AE0A0030AE072E08803A0A
:100F5A00FF0080307F02031DB42F0C302D02031CCA
:100F6A00B72FB82F732F83120313AC010A128A11F9
:100F7A0001250A128A112030F3000030F4000A1207
:100F8A008A1130250A128A112730FB000D30FA0027
:100F9A002630F900F90BCF2FFA0BCF2FFB0BCF2FEF
:100FAA0000002030F5000A128A1186250A128A11D9
:100FBA003330FB00BB30FA00DF30F900F90BE32FC6
:100FCA00FA0BE32FFB0BE32FEA2F0A128A110125F2
:100FDA000A128A112D30F3008030F4000A128A11A5
:100FEA0030250A128A116A2F0A128A1100288301EF
:060FFA000A128A114B2FC0
:02400E00723D01
:00000001FF
